:020000040800F2
:10000000280400209D010008A5010008A7010008A0
:10001000A9010008AB010008AD01000800000000C4
:10002000000000000000000000000000AF01000818
:10003000B101000800000000B3010008B50100088C
:10004000810E0008B7010008B7010008B7010008D9
:10005000B7010008B701000821070008B701000830
:1000600079070008D107000805080008B701000853
:10007000B7010008B7010008B7010008B701000880
:10008000B7010008B7010008B7010008B701000870
:10009000B7010008B7010008B7010008B701000860
:1000A000B7010008B7010008B7010008B701000850
:1000B000B7010008B7010008B7010008B701000840
:1000C000B7010008B7010008B7010008B701000830
:1000D000B7010008450C0008B7010008B701000887
:1000E000B7010008B7010008B7010008B701000810
:1000F000B7010008B7010008B7010008B701000800
:10010000B7010008B7010008B7010008B7010008EF
:10011000B7010008B7010008B7010008B7010008DF
:10012000B7010008B7010008B7010008B7010008CF
:10013000B7010008B7010008B7010008B7010008BF
:10014000B7010008B7010008B7010008B7010008AF
:10015000B7010008B7010008B7010008B70100089F
:10016000B7010008B7010008B7010008B70100088F
:10017000B7010008B7010008B7010008B70100087F
:10018000B7010008B7010008DFF80CD000F0B6FA9C
:1001900000480047B51A0008280400200648804798
:1001A00006480047FEE7FEE7FEE7FEE7FEE7FEE75C
:1001B000FEE7FEE7FEE7FEE7DD0B00088901000829
:1001C0002DE9FE4F804681EA0300C00F0C460090E7
:1001D00021F0004123F00045B8EB0200A94105D20F
:1001E0004046214690461C460B46024623F00040FE
:1001F000104347D0270DC7F30A00C3F30A510290FA
:10020000401A019040286BDAC3F3130040F4801BBE
:100210000098924620B10023D2EB030A63EB0B0B4C
:1002200001985946C0F14002504600F03AF906469E
:100230000D4650465946019A00F052F910EB08005D
:100240006141002487EA115284EAE7731A4340D0DF
:10025000009A62B3019A012A4FEA075215DC001B8B
:1002600061EB02014FF0004202EA0752CDE9004281
:10027000001C41F5801132462B4600F052F903B0C4
:10028000BDE8F08F40462146F9E7001B61EB020113
:10029000001C41F5801300185B412018A2F50017DF
:1002A00047EB030140EAD570B6196D4111E06D08C6
:1002B0004FEA360645EAC0754FEA0752001B61EB6C
:1002C0000201001C41F5801149084FEA3000001975
:1002D000514132462B4603B0BDE8F04F00F012B951
:1002E0000098012240000023D0EB020263EBE07390
:1002F000009821464FEAE074B8EB000061EB04017E
:10030000E9E783F000435BE781F0004158E72DE91E
:10031000FE4F81EA030404F0004421F00041009400
:100320004FF0000B23F0004350EA01045ED052EA84
:1003300003045BD0C3F30A54C1F30A552C44A4F25E
:10034000F3340194A0FB0254C1F3130141F4801172
:10035000C3F3130343F4801301FB024400FB034E79
:10036000840A970A44EA815447EA8357A4FB076842
:1003700002958D0A05FB07854FEA932C04FB0C546C
:100380002705029D4FEA065847EA1637B5EB0805E0
:100390006EEB070C870E920E47EA811742EA831232
:1003A000A7FB0201B6EB0B0164EB00042B0D43EA43
:1003B0000C335E1844EB1C50DA465146E7FB020151
:1003C000C5F313044FEA0B3343EA14534FEA0432E4
:1003D000019C43EA0603A4F10C040294009CCDE9BD
:1003E00000B400F09EF803B0BDE8F08F0020014695
:1003F000F9E70EB5C10F80EAE0700844CA07002192
:1004000040F233438DE80E000A460B4600F089F8AF
:1004100003B000BD30B50B46014600202022012468
:1004200009E021FA02F59D4205D303FA02F5491BC2
:1004300004FA02F52844151EA2F10102F1DC30BDD8
:100440002DE9F05F0546002092469B468846064609
:10045000814640241BE0284641464746224600F09C
:100460002FF853465A46C01A914110D311461846E8
:10047000224600F016F82D1A67EB01084F46224677
:100480000120002100F00DF817EB00094E41201E5D
:10049000A4F10104DFDC484631462A464346BDE864
:1004A000F09F202A04DB203A00FA02F10020704776
:1004B0009140C2F1200320FA03F3194390407047A2
:1004C000202A04DB203A21FA02F00021704721FAA9
:1004D00002F3D040C2F12002914008431946704710
:1004E000202A06DBCB17203A41FA02F043EAE073F8
:1004F00006E041FA02F3D040C2F1200291400843E5
:100500001946704710B5141E73F1000408DA401C38
:1005100041F1000192185B411A4301D120F0010022
:1005200010BD2DE9F04D92469B4611B1B1FA81F212
:1005300002E0B0FA80F220329046FFF7B2FF0446A4
:100540000F4640EA0A0041EA0B0153465A46084367
:1005500013D0114653EA010019D0C8F140025046A9
:10056000FFF7AEFF05460E46504659464246FFF796
:1005700098FF084305D0012004E020463946BDE835
:10058000F08D0020054346EAE0762C4337430A9875
:100590006305E40AA0EB08000022FD0A44EA475480
:1005A0000A3002D500200146E9E70105101969412A
:1005B000DDE9084500196941BDE8F04DA2E72DE9E4
:1005C000F04D81EA030404F0004B21F0004514468D
:1005D0004FF0000A23F0004150EA050220D054EA0F
:1005E00001021DD0C5F30A570246C5F31303C1F338
:1005F0001300C1F30A5640F4801543F48013A7EBAF
:100600000608101BD64608F2FD3873EB050002D32E
:1006100008F1010801E092185B41B8F1000F03DA1C
:1006200000200146BDE8F08D00204FF48011064601
:1006300084460EE0171B73EB050705D3121B63EB13
:10064000050306434CEA010C49084FEA30009218B2
:100650005B4150EA0107EDD152EA030012D082EA71
:10066000040083EA0501084305D0101BAB4106D204
:100670000122002306E000224FF0004302E06FF069
:10068000010253101AEB06004CEB085110EB0A0064
:1006900041EB0B01BDE8F04DFFF734BFC1F30A5247
:1006A000C1F3130140F2FF3341F480119A4202DAA0
:1006B00000200146704740F233439A42A2F233428F
:1006C00002DC5242FFF7FCBEFFF7EBBE30B5041E62
:1006D00071F1000404DB4FF00044404264EB01017F
:1006E000141E73F1000405DB1C464FF00043524218
:1006F00063EB0403994208BF904230BD064C074D9E
:1007000006E0E06840F0010394E8070098471034E1
:10071000AC42F6D3FFF73CFD381D0008581D000819
:1007200010B5012000F08EF801281FD101211048DA
:1007300000F0FFF880B90121084601F057F90421C3
:100740000C4800F0F6F818B9012001F017F80AE09B
:10075000002001F013F806E00021012001F046F925
:10076000002001F00BF8012000F066F810BD000039
:10077000000002400010024010B5042000F062F8B2
:1007800001281FD10421104800F0D3F880B90121BD
:10079000022001F02BF901210C4800F0CAF818B929
:1007A000012000F0EBFF0AE0002000F0E7FF06E088
:1007B0000021022001F01AF9002000F0DFFF0420E0
:1007C00000F03AF810BD00000010024000000240A6
:1007D00010B5082000F036F8012810D1082108488B
:1007E00000F0A7F820B90121032001F0FFF803E091
:1007F0000021032001F0FAF8082000F01DF810BDD8
:100800000010024010B5102000F01CF8012810D193
:100810001021084800F08DF820B90121042001F0D2
:10082000E5F803E00021042001F0E0F8102000F0DA
:1008300003F810BD00100240014908607047000035
:10084000143C014001460020034A12680A400AB1E4
:10085000012000E000207047143C0140F0B50A463A
:1008600000210023002400BF3DE0012505FA01F32B
:10087000156805EA03049C4234D105684F0003263D
:10088000BE40B543056015794E00B5400668354356
:1008900005601579012D02D01579022D16D18568D4
:1008A0004F000326BE40B543856055794E00B540E4
:1008B000866835438560456801268E40B5434560AE
:1008C000456896798E40B6B235434560C5684F009D
:1008D0000326BE40B543C560D5794E00B540C66815
:1008E0003543C560491C1029BFD3F0BDF0B50023C6
:1008F00000244D07ED0E02FA05F3CE1000F120059D
:1009000055F826504E07F70E0F26BE40B543CF10C0
:1009100000F1200646F82750CE1000F1200555F8CA
:10092000265045EA0304CE1000F1200545F8264084
:10093000F0BD0246002013690B400BB1012000E01E
:10094000002070470A04826170478161704700008F
:1009500070B5002100230F22C4781CB3174C246803
:1009600004F4E064C4F5E064C4F30721C1F10404B5
:10097000E3B20A4144789C40E1B2847814402143B8
:100980000C07210E0E4C05786155047804F01F0504
:100990000124AC4005786D11AD0005F1E025C5F8E6
:1009A000004109E0047804F01F050124AC40054D26
:1009B0000678761145F8264070BD00000CED00E089
:1009C00000E400E080E100E029B1064A1268024339
:1009D000044B1A6004E0034A12688243014B1A6018
:1009E000704700003038024029B1064A12680243BD
:1009F000044B1A6004E0034A12688243014B1A60F8
:100A00007047000044380240F0B500210022002465
:100A1000022500260223324F3F6807F00C0121B166
:100A2000042905D0082937D105E02E4F076036E0AC
:100A30002D4F076033E02A4F3F1F3F68C7F38056B2
:100A4000274F3F1F3F6807F03F036EB1264FB7FBAC
:100A5000F3F7DFF88CC0ACF1040CDCF800C0CCF389
:100A6000881C07FB0CF40CE01E4FB7FBF3F7DFF814
:100A700070C0ACF1040CDCF800C0CCF3881C07FBA0
:100A80000CF4174F3F1F3F68C7F301477F1C7D00E1
:100A9000B4FBF5F7076002E0124F076000BF00BF2C
:100AA0000F4F3F6807F0F0010909104F7A5C0768A3
:100AB000D74047600A4F3F6807F4E051890A0B4F5F
:100AC0007A5C4768D7408760054F3F6807F460410C
:100AD000490B064F7A5C4768D740C760F0BD0000FD
:100AE000083802400024F40000127A0014000020AC
:100AF0000CB50020019000903448006840F480302C
:100B00003249086000BF3148006800F400300090AE
:100B10000198401C0190009818B90198B0F5A04FB9
:100B2000F1D12A48006800F4003010B10120009093
:100B300001E0002000900098012846D12348403071
:100B4000006840F08050214940310860204800682A
:100B500040F440401E4908601C48083000681B49AA
:100B6000083108600846006840F400400860084604
:100B7000006840F4A05008601648091F0860081F6C
:100B8000006840F08070091F086000BF0F480068CF
:100B900000F000700028F9D040F205700E4908609E
:100BA0000A480830006820F003000849083108604E
:100BB0000846006840F00200086000BF03480830A3
:100BC000006800F00C000828F8D10CBD0038024085
:100BD0000070004008544007003C024010B5154822
:100BE000006840F47000134908601348006840F042
:100BF00001001149086000200F49083108600E48C3
:100C000000680E4908400C4908600D48091D08603D
:100C1000081F006820F48020091F08600020064992
:100C20000C310860FFF764FF4FF000600149803924
:100C3000086010BD88ED00E000380240FFFFF6FEBE
:100C40001030002410B540F225510E4800F044F851
:100C5000012815D10B4800F0F9F8C4B2012C04D1D9
:100C60000121084600F0C2FE05E0022C03D100215C
:100C7000012000F0BBFE40F22551024800F004F8CC
:100C800010BD00000010014010B50022002340F606
:100C90006A14A14200D100BF0A1201249440A3B2F9
:100CA000DC43048010BD21B1828942F4005282816C
:100CB00004E082894DF6FF731A4082817047024634
:100CC0000020B1F5007F00D100BF13880B400BB1AD
:100CD000012000E00020704770B502460024002388
:100CE0000025002040F66A16B14200D100BFC1F3D2
:100CF000421501F01F03012606FA03F3012D02D16C
:100D00009689334006E0022D02D1168A334001E075
:100D1000968A33400C12012606FA04F416883440F1
:100D200013B10CB1012000E0002070BDF0B5034606
:100D3000002400260025002040F66A17B94200D1A1
:100D400000BF1846C1F3421401F01F06012707FA3D
:100D500006F5012C01D10C3004E0022C01D1103039
:100D600000E014301AB107682F43076002E00768FB
:100D7000AF430760F0BD00002DE9FF4705460E4672
:100D80000024A14600BFA046B08900B100BF2C8A54
:100D900024F44054F08804432C82AC8941F20C6066
:100DA0008443B08831890843718908430443AC8186
:100DB000AC8A24F44074B0890443AC826846FFF7DF
:100DC00023FE2048854202D01F48854202D1DDF82B
:100DD0000C9001E0DDF80890A88900F4004040B1D3
:100DE00009EBC90000EB091031684900B0FBF1F7CD
:100DF00007E009EBC90000EB091031688900B0FB7E
:100E0000F1F76420B7FBF0F004012009642101FB35
:100E10001078A88900F4004040B1322000EBC800EF
:100E2000B0FBF1F000F00700044308E0322000EBD3
:100E300008106421B0FBF1F000F00F0004432C8196
:100E4000BDE8FF870010014000140140014688887A
:100E5000C0F308007047C1F30802828070470000A9
:100E60000020014908607047082C00400020034919
:100E7000096809B1012000E000207047082C0040FB
:100E800010B5FFF7F3FF012804D17F2000F004F82C
:100E9000FFF7E6FF10BD000000F07F01014A11607E
:100EA00070470000002C00400FB4054B10B503A99B
:100EB000044A029800F0CAF810BC5DF814FB000068
:100EC000C91900082400002002E008C8121F08C148
:100ED000002AFAD170477047002001E001C1121FBB
:100EE000002AFBD1704700002DE9FF5FDDE90220F9
:100EF000010DDDF838B0024318D044F61050A1F2CD
:100F0000FF3141430D140F98012820D0A5EB0B00B1
:100F1000401C5FEA000A4FF00004474EDFF81C91C6
:100F2000A046504616D5CAF1000728E00F980124C4
:100F300043A2012808D0002100980F9BC0E900219E
:100F4000C0E90243BDE8FF9F6FEA0B01F4E7CBF174
:100F50000000DEE7074612E0F80707D022463346D6
:100F600040464946FFF7D3F9804689462246334634
:100F700010461946FFF7CBF904460E467F10002FA6
:100F8000EAD1DDE90201BAF1000F42464B4602DA2E
:100F9000FFF7BDF901E0FFF712FB04460E46002201
:100FA000284BFFF793FB03D84FF0FF30014607E0D3
:100FB0000022254B20463146FFF702F9FFF76EFB72
:100FC000102409E0002C0ADB0A220023FFF738FA7C
:100FD000019B30321A55641E50EA0102F2D1641CA2
:100FE000019AC4F1110314440F9A012A03D001227B
:100FF00008430DD10AE0084304D000204FF0110B44
:101000000F9080E7A3EB0B056D1E0DE05B4504DD43
:101010004FF0000205F1010504E003DA4FF0000291
:10102000A5F10105002AECD000980F99C0E9023122
:10103000C0E9004586E70000000024400000F03FC2
:10104000300000000000F0430000E03F2DE9FF4FBA
:1010500095B09B468946064600250FE2252877D1A4
:1010600000242746F84A0121059400E0044316F8BD
:10107000013F203B01FA03F01042F7D130782A28D3
:1010800011D06FF02F033078A0F13002092A16D862
:10109000059A44F0020402EB820203EB4202104480
:1010A000761C0590EFE759F8042B0592002A03DA25
:1010B000504244F40054059044F00204761C307809
:1010C0002E2816D116F8010F44F004042A280DD05A
:1010D0006FF02F023078A0F13003092B09D807EB0D
:1010E000870302EB4303C718761CF3E759F8047B28
:1010F000761C30786C280FD006DC4C2817D0682876
:101100000DD06A2814D104E0742810D07A280FD1A9
:101110000DE044F400140AE044F4801401E044F4C7
:1011200040147278824202D104F58014761C761C39
:10113000307866280BD013DC582877D009DC0028DB
:1011400075D04528F6D04628F4D047281AD19DE11D
:1011500018E0632835D0642879D0652812D195E14C
:10116000702873D008DC6728F1D069286FD06E280A
:101170000DD06F2806D1B5E073282CD0752875D016
:10118000782874D05A46179990476D1C75E1C4F3BE
:101190000250022809D003280DD0D9F800100428E5
:1011A0000DD00D6009F1040967E1D9F80010EA17C4
:1011B000C1E90052F6E7D9F800100D80F2E70D7092
:1011C000F0E719F8041B8DF8001000208DF80100DD
:1011D000EA46012003E059F804AB4FF0FF30610705
:1011E0004FF0000102D40DE008F101018846B94238
:1011F0000FDA8045F8DB1AF808100029F4D108E06E
:1012000008F1010188468142FADB1AF8081000292A
:10121000F6D105985B46A0EB080721463846179A99
:1012200000F094FA284400EB080507E04DE029E1BE
:101230000DE01AF8010B5A4617999047B8F10108CA
:10124000F7D25B4621463846179A13E142E00A225C
:101250000092C4F302524FF0000A022A08D059F853
:1012600004CB032A4FEAEC710AD00DE029E02AE012
:1012700009F1070121F00702F2E802C1914609E0F5
:101280000FFA8CFC4FEAEC71042A03D14FFA8CFC64
:101290004FEAEC71002907DA0A460021DCF1000C64
:1012A00061EB02012D2202E0220504D52B228DF8EC
:1012B0000420012203E0E20701D02022F7E7904654
:1012C00059E00A2102E010220DE010214FF0000A3F
:1012D00000910BE010224FF0000A44F004040827AC
:1012E000009203E008224FF0000A0092C4F3025279
:1012F000022A05D059F804CB0021032A08D009E0BE
:1013000009F1070121F00702F2E802C1914605E068
:101310001FFA8CFC042A01D10CF0FF0C4FF00008DE
:10132000220728D5702806D0009B83F0100353EACB
:101330000A0305D00EE040228DF80420012208E0C7
:101340005CEA010206D030228DF804208DF80500F9
:1013500002229046009B83F0080353EA0A030AD155
:101360005CEA010201D1620705D530228DF8042024
:101370004FF001087F1E582804D034A003900EA817
:1013800002900DE036A0F9E753466046009AFFF759
:1013900057F884460398825C0298401E02900270BF
:1013A0005CEA0100F0D1029806A9081A00F1200AAF
:1013B000600702D524F4803400E00127574502DDA0
:1013C000A7EB0A0000E0002000EB0A01009005985E
:1013D0004144401A0590E00306D45B462146179A23
:1013E000059800F0B3F90544002706E001A85A4625
:1013F000C05D179990476D1C7F1C4745F6DBE003E5
:101400000CD55B462146179A059800F09FF90544D4
:1014100004E030205A46179990476D1C0099481EE9
:1014200000900029F5DC08E0029802995A460078FD
:10143000491C0291179990476D1CBAF10001AAF15D
:10144000010AF1DC65E10000092801003031323386
:1014500034353637383961626364656600000000F0
:1014600030313233343536373839414243444546DA
:101470000000000000F058F90544761C3078002880
:101480007FF4ECAD19B02846BDE8F08F620700D4B8
:10149000062709F1070222F0070CFCE80223E146C7
:1014A00003F000485FEA080C02D00FF2702C0DE048
:1014B0005FEA045C02D50FF2682C07E05FEAC47CA7
:1014C00002D00FF2602C01E0AFF2700C4FF0FF3849
:1014D00023F00043CDF850C065280CD006DC452829
:1014E00009D046281DD047283DD13DE0662818D0B8
:1014F00067287ED138E00021112F01DB112000E0A8
:10150000781CCDE9000106A90EA8FFF7EDFCDDE986
:101510000F010E9A03910021009207F1010A049134
:101520004DE04FF000400097CDE9011006A90EA84C
:10153000FFF7DAFCDDE90F0203920E9B11990022FE
:10154000DDF80CA00093049211B9791C00EB010A9C
:10155000B7EB0A0004D4C0F1FF3007F1010A049090
:10156000AAEB0700019044E0012F00DA01270021D7
:10157000112F01DD112000E03846CDE9000106A958
:101580000EA8FFF7B1FCDDE90F010E9A03910021CF
:1015900004910092BA4621070CD40399514500DA10
:1015A0008A46BAF1010F05DD009AAAF10101515CEA
:1015B000302908D0B84202DA10F1040F06DA01210E
:1015C000CDE9011015E0AAF10101E9E7002805DCE9
:1015D000049901440491AAEB000102E0411C514529
:1015E00000DD8A460499401A401C01904FF00040EB
:1015F0000290200704D40198504501DBCDF8048007
:1016000000208DF84F0002980DF14F07B0F1004F08
:1016100025D02B200E9002984FF0020800280CDAFB
:10162000404202902D200E9007E00A210298FEF71A
:10163000F1FE3031029007F8011DB8F10001A8F168
:101640000108F2DC02980028EFD1791E0E9808708C
:10165000307800F0200040F0450007F8020D12A895
:10166000C01B00F107081498007800B1012000EBBE
:101670000A01019801EBE07105984144401A401EAF
:101680000590E00306D45B462146179A059800F0C2
:101690005DF805441498007818B15A461799904798
:1016A0006D1CE00324D55B462146179A059800F08F
:1016B0004DF805441CE00498002807DBDDE9030130
:1016C000884203DD0098405C179901E017993020AB
:1016D0005A469047049805F10105401C0490019872
:1016E000401E019004D12E205A46179990476D1C38
:1016F000BAF10001AAF1010ADDDC05E017F8010BDF
:101700005A46179990476D1CB8F10001A8F10108DD
:10171000F4DC5B462146179A0598ABE62D000000E5
:101720002B000000200000002DE9F04104460025B8
:101730001E461746880404D405E039462020B047E9
:101740006D1C641EF9D52846BDE8F0812DE9F041F5
:10175000044600251E469046C80301D5302700E008
:101760002027880404D505E041463846B0476D1C63
:10177000641EF9D52846BDE8F081000010B5044686
:10178000012C04D101020548FFF7DFF804E04FF413
:1017900080710248FFF7D6F810BD00000014024027
:1017A00070B54FF0E0252D6925F001054FF0E026DA
:1017B000356135462D6945F00405356135462D699D
:1017C00025F002053561322190FBF1F490FBF1F533
:1017D00001FB1503002222E0244D2D684FF47A7698
:1017E000B5FBF6F54D436D1E4FF0E0267561002503
:1017F000B56135462D6945F00105356100BF4FF0F3
:10180000E0252D6905F48035002DF8D04FF0E02556
:101810002D6925F001054FF0E0263561521CA242EA
:10182000DADB0BB3114D2D684FF47A76B5FBF6F584
:101830005D436D1E4FF0E02675610025B5613546AC
:101840002D6945F00105356100BF4FF0E0252D6998
:1018500005F48035002DF8D04FF0E0252D6925F0F6
:1018600001054FF0E026356170BD0000000000204A
:1018700070B54FF0E0252D6925F001054FF0E02609
:10188000356135462D6945F00405356135462D69CC
:1018900025F0020535614CF2503190FBF1F490FBDC
:1018A000F1F501FB1503002221E0234D2D68234EA5
:1018B000B5FBF6F54D436D1E4FF0E0267561002532
:1018C000B56135462D6945F00105356100BF4FF022
:1018D000E0252D6905F48035002DF8D04FF0E02586
:1018E0002D6925F001054FF0E0263561521CA2421A
:1018F000DBDB03B3104D2D68104EB5FBF6F55D43F1
:101900006D1E4FF0E02675610025B56135462D69E5
:1019100045F00105356100BF4FF0E0252D6905F464
:101920008035002DF8D04FF0E0252D6925F0010518
:101930004FF0E026356170BD0000002040420F00EE
:101940001CB501210846FFF73FF8002000900190E8
:1019500001208DF8040000208DF80600082000907A
:1019600000208DF8070002208DF805006946134815
:10197000FEF774FF08211148FEF7E7FF0120FFF78B
:1019800077FF08210D48FEF7DDFF5020FFF770FFBD
:1019900008210A48FEF7D9FF002408E06420FFF779
:1019A00067FF641C052C02DD05A0FFF77DFA082106
:1019B0000248FEF7BEFF0028F0D11CBD0000024027
:1019C0006661696C6564000070B504460D4600BF31
:1019D00080210548FFF773F90028F9D0A1B2024829
:1019E000FFF739FA204670BD0010014070B505467A
:1019F0000C46032D24D004DC012D07D0022D51D13B
:101A000011E0042D29D0642D4CD133E0012C04D1F8
:101A100061022648FEF796FF04E04FF40071234868
:101A2000FEF793FF3FE0012C04D1A1021F48FEF70F
:101A300089FF04E04FF480611C48FEF786FF32E026
:101A4000012C04D161031A48FEF77CFF04E04FF437
:101A500000511748FEF779FF25E0012C04D1A103BE
:101A60001348FEF76FFF04E04FF480411048FEF783
:101A70006CFF18E0012C0AD14FF4C0410C48FEF76E
:101A800061FF4FF4C0610948FEF75CFF09E04FF4C5
:101A9000C0410748FEF759FF4FF4C0610348FEF705
:101AA00054FF00E000BF00BF70BD00000014024002
:101AB000001002402DED048B82B0FFF741FF00F0D3
:101AC000A5F82AA0FFF7F0F9332000F001F900246F
:101AD0000AE000F06DF80DF804001DF8042021461E
:101AE00024A0FFF7E1F9641C082CF2DB3CE0CC20D9
:101AF00000F0EEF8442000F0EBF84FF4FA70FFF736
:101B00004FFE552000F0E4F8002404E01DF8040026
:101B100000F0DEF8641C082CF8DBBE2000F0D8F8DA
:101B200000F046F8054600F043F845EA002005B20B
:101B300005F00F02291115A0FFF7B6F92846FEF7A8
:101B400058FC41EC190B9FED150B53EC102BFEF7D5
:101B5000DEFB41EC180B53EC182B12A0FFF7A4F995
:101B60004FF4FA70FFF71CFEC1E700007375636362
:101B700065737300445331384232305F524F4D5BCE
:101B800025645D3D307825580A00000074656D704D
:101B9000313D25642E25640A00000000000000008D
:101BA0000000B03F74656D70323D25660A0000008C
:101BB00070B50024002523E008211348FEF7C2FE7B
:101BC0000120FFF755FE08210F48FEF7BEFE012059
:101BD000FFF74EFE0120FFF74BFE0120FFF748FE06
:101BE0000120FFF745FE08210748FEF7A2FE08B1D5
:101BF00044F0800464100A20FFF73AFE681CC5B266
:101C0000082DD9DB204670BD0000024000B587B02A
:101C100001210846FEF7D8FE00200590069002201C
:101C20008DF8180000208DF81A004FF4C060059060
:101C300000208DF81B0002208DF8190005A922480C
:101C4000FEF70CFE072209211F48FEF74FFE072270
:101C50000A211D48FEF74AFE01211020FEF7C4FEAE
:101C6000002001900290039004904FF4E130019025
:101C70000020ADF810000C20ADF80E000020ADF8EB
:101C80000C00ADF80A00ADF8080001A90F48FFF7F5
:101C900073F8012240F225510C48FFF747F8252040
:101CA0008DF8000001208DF8030002208DF801005E
:101CB0008DF802006846FEF74BFE01210348FEF74F
:101CC000F2FF07B000BD000000000240001001401C
:101CD00070B50446002516E008210E48FEF732FED6
:101CE0000120FFF7C5FD04F001020821094800F0BA
:101CF00013F80A20FFF7BCFD08210648FEF725FE71
:101D00006410681CC5B2082DE6DB0A20FFF7B0FDA1
:101D100070BD00000000024070B506460C46154636
:101D2000012D04D1A1B23046FEF70FFE03E0A1B2AF
:101D30003046FEF707FE70BD581D00080000002069
:101D400028000000C80E0008801D000828000020A0
:101D500000040000D80E0008007A030A000000000A
:101D6000000000000102030406070809000000004B
:101D70000102030401020304060708090000000031
:040000050800018965
:00000001FF
